{
  "_format": "hh-sol-artifact-1",
  "contractName": "Verinft",
  "sourceName": "contracts/Verinft.sol",
  "abi": [
    {
      "inputs": [],
      "stateMutability": "nonpayable",
      "type": "constructor"
    },
    {
      "anonymous": false,
      "inputs": [
        {
          "indexed": true,
          "internalType": "address",
          "name": "owner",
          "type": "address"
        },
        {
          "indexed": true,
          "internalType": "address",
          "name": "approved",
          "type": "address"
        },
        {
          "indexed": true,
          "internalType": "uint256",
          "name": "tokenId",
          "type": "uint256"
        }
      ],
      "name": "Approval",
      "type": "event"
    },
    {
      "anonymous": false,
      "inputs": [
        {
          "indexed": true,
          "internalType": "address",
          "name": "owner",
          "type": "address"
        },
        {
          "indexed": true,
          "internalType": "address",
          "name": "operator",
          "type": "address"
        },
        {
          "indexed": false,
          "internalType": "bool",
          "name": "approved",
          "type": "bool"
        }
      ],
      "name": "ApprovalForAll",
      "type": "event"
    },
    {
      "anonymous": false,
      "inputs": [
        {
          "indexed": true,
          "internalType": "address",
          "name": "previousOwner",
          "type": "address"
        },
        {
          "indexed": true,
          "internalType": "address",
          "name": "newOwner",
          "type": "address"
        }
      ],
      "name": "OwnershipTransferred",
      "type": "event"
    },
    {
      "anonymous": false,
      "inputs": [
        {
          "indexed": true,
          "internalType": "address",
          "name": "from",
          "type": "address"
        },
        {
          "indexed": true,
          "internalType": "address",
          "name": "to",
          "type": "address"
        },
        {
          "indexed": true,
          "internalType": "uint256",
          "name": "tokenId",
          "type": "uint256"
        }
      ],
      "name": "Transfer",
      "type": "event"
    },
    {
      "inputs": [
        {
          "internalType": "address",
          "name": "to",
          "type": "address"
        },
        {
          "internalType": "uint256",
          "name": "tokenId",
          "type": "uint256"
        }
      ],
      "name": "approve",
      "outputs": [],
      "stateMutability": "nonpayable",
      "type": "function"
    },
    {
      "inputs": [
        {
          "internalType": "address",
          "name": "owner",
          "type": "address"
        }
      ],
      "name": "balanceOf",
      "outputs": [
        {
          "internalType": "uint256",
          "name": "",
          "type": "uint256"
        }
      ],
      "stateMutability": "view",
      "type": "function"
    },
    {
      "inputs": [],
      "name": "count",
      "outputs": [
        {
          "internalType": "uint256",
          "name": "",
          "type": "uint256"
        }
      ],
      "stateMutability": "view",
      "type": "function"
    },
    {
      "inputs": [
        {
          "internalType": "uint256",
          "name": "tokenId",
          "type": "uint256"
        }
      ],
      "name": "getApproved",
      "outputs": [
        {
          "internalType": "address",
          "name": "",
          "type": "address"
        }
      ],
      "stateMutability": "view",
      "type": "function"
    },
    {
      "inputs": [
        {
          "internalType": "address",
          "name": "owner",
          "type": "address"
        },
        {
          "internalType": "address",
          "name": "operator",
          "type": "address"
        }
      ],
      "name": "isApprovedForAll",
      "outputs": [
        {
          "internalType": "bool",
          "name": "",
          "type": "bool"
        }
      ],
      "stateMutability": "view",
      "type": "function"
    },
    {
      "inputs": [
        {
          "internalType": "string",
          "name": "uri",
          "type": "string"
        }
      ],
      "name": "isContentOwned",
      "outputs": [
        {
          "internalType": "bool",
          "name": "",
          "type": "bool"
        }
      ],
      "stateMutability": "view",
      "type": "function"
    },
    {
      "inputs": [],
      "name": "name",
      "outputs": [
        {
          "internalType": "string",
          "name": "",
          "type": "string"
        }
      ],
      "stateMutability": "view",
      "type": "function"
    },
    {
      "inputs": [],
      "name": "owner",
      "outputs": [
        {
          "internalType": "address",
          "name": "",
          "type": "address"
        }
      ],
      "stateMutability": "view",
      "type": "function"
    },
    {
      "inputs": [
        {
          "internalType": "uint256",
          "name": "tokenId",
          "type": "uint256"
        }
      ],
      "name": "ownerOf",
      "outputs": [
        {
          "internalType": "address",
          "name": "",
          "type": "address"
        }
      ],
      "stateMutability": "view",
      "type": "function"
    },
    {
      "inputs": [
        {
          "internalType": "address",
          "name": "recipient",
          "type": "address"
        },
        {
          "internalType": "string",
          "name": "metadataURI",
          "type": "string"
        }
      ],
      "name": "payToMint",
      "outputs": [
        {
          "internalType": "uint256",
          "name": "",
          "type": "uint256"
        }
      ],
      "stateMutability": "payable",
      "type": "function"
    },
    {
      "inputs": [],
      "name": "renounceOwnership",
      "outputs": [],
      "stateMutability": "nonpayable",
      "type": "function"
    },
    {
      "inputs": [
        {
          "internalType": "address",
          "name": "to",
          "type": "address"
        },
        {
          "internalType": "string",
          "name": "uri",
          "type": "string"
        }
      ],
      "name": "safeMint",
      "outputs": [],
      "stateMutability": "nonpayable",
      "type": "function"
    },
    {
      "inputs": [
        {
          "internalType": "address",
          "name": "from",
          "type": "address"
        },
        {
          "internalType": "address",
          "name": "to",
          "type": "address"
        },
        {
          "internalType": "uint256",
          "name": "tokenId",
          "type": "uint256"
        }
      ],
      "name": "safeTransferFrom",
      "outputs": [],
      "stateMutability": "nonpayable",
      "type": "function"
    },
    {
      "inputs": [
        {
          "internalType": "address",
          "name": "from",
          "type": "address"
        },
        {
          "internalType": "address",
          "name": "to",
          "type": "address"
        },
        {
          "internalType": "uint256",
          "name": "tokenId",
          "type": "uint256"
        },
        {
          "internalType": "bytes",
          "name": "_data",
          "type": "bytes"
        }
      ],
      "name": "safeTransferFrom",
      "outputs": [],
      "stateMutability": "nonpayable",
      "type": "function"
    },
    {
      "inputs": [
        {
          "internalType": "address",
          "name": "operator",
          "type": "address"
        },
        {
          "internalType": "bool",
          "name": "approved",
          "type": "bool"
        }
      ],
      "name": "setApprovalForAll",
      "outputs": [],
      "stateMutability": "nonpayable",
      "type": "function"
    },
    {
      "inputs": [
        {
          "internalType": "bytes4",
          "name": "interfaceId",
          "type": "bytes4"
        }
      ],
      "name": "supportsInterface",
      "outputs": [
        {
          "internalType": "bool",
          "name": "",
          "type": "bool"
        }
      ],
      "stateMutability": "view",
      "type": "function"
    },
    {
      "inputs": [],
      "name": "symbol",
      "outputs": [
        {
          "internalType": "string",
          "name": "",
          "type": "string"
        }
      ],
      "stateMutability": "view",
      "type": "function"
    },
    {
      "inputs": [
        {
          "internalType": "uint256",
          "name": "tokenId",
          "type": "uint256"
        }
      ],
      "name": "tokenURI",
      "outputs": [
        {
          "internalType": "string",
          "name": "",
          "type": "string"
        }
      ],
      "stateMutability": "view",
      "type": "function"
    },
    {
      "inputs": [
        {
          "internalType": "address",
          "name": "from",
          "type": "address"
        },
        {
          "internalType": "address",
          "name": "to",
          "type": "address"
        },
        {
          "internalType": "uint256",
          "name": "tokenId",
          "type": "uint256"
        }
      ],
      "name": "transferFrom",
      "outputs": [],
      "stateMutability": "nonpayable",
      "type": "function"
    },
    {
      "inputs": [
        {
          "internalType": "address",
          "name": "newOwner",
          "type": "address"
        }
      ],
      "name": "transferOwnership",
      "outputs": [],
      "stateMutability": "nonpayable",
      "type": "function"
    }
  ],
  "bytecode": "0x60806040523480156200001157600080fd5b506040518060400160405280600781526020017f566572696e6674000000000000000000000000000000000000000000000000008152506040518060400160405280600381526020017f5652540000000000000000000000000000000000000000000000000000000000815250816000908051906020019062000096929190620001a6565b508060019080519060200190620000af929190620001a6565b505050620000d2620000c6620000d860201b60201c565b620000e060201b60201c565b620002bb565b600033905090565b6000600760009054906101000a900473ffffffffffffffffffffffffffffffffffffffff16905081600760006101000a81548173ffffffffffffffffffffffffffffffffffffffff021916908373ffffffffffffffffffffffffffffffffffffffff1602179055508173ffffffffffffffffffffffffffffffffffffffff168173ffffffffffffffffffffffffffffffffffffffff167f8be0079c531659141344cd1fd0a4f28419497f9722a3daafe3b4186f6b6457e060405160405180910390a35050565b828054620001b49062000256565b90600052602060002090601f016020900481019282620001d8576000855562000224565b82601f10620001f357805160ff191683800117855562000224565b8280016001018555821562000224579182015b828111156200022357825182559160200191906001019062000206565b5b50905062000233919062000237565b5090565b5b808211156200025257600081600090555060010162000238565b5090565b600060028204905060018216806200026f57607f821691505b602082108114156200028657620002856200028c565b5b50919050565b7f4e487b7100000000000000000000000000000000000000000000000000000000600052602260045260246000fd5b6134ea80620002cb6000396000f3fe60806040526004361061011f5760003560e01c8063715018a6116100a0578063b88d4fde11610064578063b88d4fde146103ec578063c87b56dd14610415578063d204c45e14610452578063e985e9c51461047b578063f2fde38b146104b85761011f565b8063715018a6146103195780638da5cb5b1461033057806395d89b411461035b5780639f1cabc614610386578063a22cb465146103c35761011f565b806323b872dd116100e757806323b872dd1461021d57806342842e0e14610246578063615fd9e21461026f5780636352211e1461029f57806370a08231146102dc5761011f565b806301ffc9a71461012457806306661abd1461016157806306fdde031461018c578063081812fc146101b7578063095ea7b3146101f4575b600080fd5b34801561013057600080fd5b5061014b60048036038101906101469190612369565b6104e1565b6040516101589190612853565b60405180910390f35b34801561016d57600080fd5b506101766105c3565b6040516101839190612b10565b60405180910390f35b34801561019857600080fd5b506101a16105d4565b6040516101ae919061286e565b60405180910390f35b3480156101c357600080fd5b506101de60048036038101906101d991906123fc565b610666565b6040516101eb91906127ec565b60405180910390f35b34801561020057600080fd5b5061021b6004803603810190610216919061232d565b6106eb565b005b34801561022957600080fd5b50610244600480360381019061023f91906121d3565b610803565b005b34801561025257600080fd5b5061026d600480360381019061026891906121d3565b610863565b005b610289600480360381019061028491906122d9565b610883565b6040516102969190612b10565b60405180910390f35b3480156102ab57600080fd5b506102c660048036038101906102c191906123fc565b6109b1565b6040516102d391906127ec565b60405180910390f35b3480156102e857600080fd5b5061030360048036038101906102fe919061216e565b610a63565b6040516103109190612b10565b60405180910390f35b34801561032557600080fd5b5061032e610b1b565b005b34801561033c57600080fd5b50610345610ba3565b60405161035291906127ec565b60405180910390f35b34801561036757600080fd5b50610370610bcd565b60405161037d919061286e565b60405180910390f35b34801561039257600080fd5b506103ad60048036038101906103a891906123bb565b610c5f565b6040516103ba9190612853565b60405180910390f35b3480156103cf57600080fd5b506103ea60048036038101906103e5919061229d565b610c9a565b005b3480156103f857600080fd5b50610413600480360381019061040e9190612222565b610cb0565b005b34801561042157600080fd5b5061043c600480360381019061043791906123fc565b610d12565b604051610449919061286e565b60405180910390f35b34801561045e57600080fd5b50610479600480360381019061047491906122d9565b610d24565b005b34801561048757600080fd5b506104a2600480360381019061049d9190612197565b610e09565b6040516104af9190612853565b60405180910390f35b3480156104c457600080fd5b506104df60048036038101906104da919061216e565b610e9d565b005b60007f80ac58cd000000000000000000000000000000000000000000000000000000007bffffffffffffffffffffffffffffffffffffffffffffffffffffffff1916827bffffffffffffffffffffffffffffffffffffffffffffffffffffffff191614806105ac57507f5b5e139f000000000000000000000000000000000000000000000000000000007bffffffffffffffffffffffffffffffffffffffffffffffffffffffff1916827bffffffffffffffffffffffffffffffffffffffffffffffffffffffff1916145b806105bc57506105bb82610f95565b5b9050919050565b60006105cf6008610fff565b905090565b6060600080546105e390612d66565b80601f016020809104026020016040519081016040528092919081815260200182805461060f90612d66565b801561065c5780601f106106315761010080835404028352916020019161065c565b820191906000526020600020905b81548152906001019060200180831161063f57829003601f168201915b5050505050905090565b60006106718261100d565b6106b0576040517f08c379a00000000000000000000000000000000000000000000000000000000081526004016106a790612a50565b60405180910390fd5b6004600083815260200190815260200160002060009054906101000a900473ffffffffffffffffffffffffffffffffffffffff169050919050565b60006106f6826109b1565b90508073ffffffffffffffffffffffffffffffffffffffff168373ffffffffffffffffffffffffffffffffffffffff161415610767576040517f08c379a000000000000000000000000000000000000000000000000000000000815260040161075e90612ad0565b60405180910390fd5b8073ffffffffffffffffffffffffffffffffffffffff16610786611079565b73ffffffffffffffffffffffffffffffffffffffff1614806107b557506107b4816107af611079565b610e09565b5b6107f4576040517f08c379a00000000000000000000000000000000000000000000000000000000081526004016107eb90612970565b60405180910390fd5b6107fe8383611081565b505050565b61081461080e611079565b8261113a565b610853576040517f08c379a000000000000000000000000000000000000000000000000000000000815260040161084a90612af0565b60405180910390fd5b61085e838383611218565b505050565b61087e83838360405180602001604052806000815250610cb0565b505050565b6000600160098360405161089791906127b1565b908152602001604051809103902060009054906101000a900460ff1660ff1614156108f7576040517f08c379a00000000000000000000000000000000000000000000000000000000081526004016108ee906129f0565b60405180910390fd5b6802b5e3af16b1880000341015610943576040517f08c379a000000000000000000000000000000000000000000000000000000000815260040161093a90612a90565b60405180910390fd5b600061094f6008610fff565b905061095b600861147f565b600160098460405161096d91906127b1565b908152602001604051809103902060006101000a81548160ff021916908360ff16021790555061099d8482611495565b6109a7818461166f565b8091505092915050565b6000806002600084815260200190815260200160002060009054906101000a900473ffffffffffffffffffffffffffffffffffffffff169050600073ffffffffffffffffffffffffffffffffffffffff168173ffffffffffffffffffffffffffffffffffffffff161415610a5a576040517f08c379a0000000000000000000000000000000000000000000000000000000008152600401610a51906129b0565b60405180910390fd5b80915050919050565b60008073ffffffffffffffffffffffffffffffffffffffff168273ffffffffffffffffffffffffffffffffffffffff161415610ad4576040517f08c379a0000000000000000000000000000000000000000000000000000000008152600401610acb90612990565b60405180910390fd5b600360008373ffffffffffffffffffffffffffffffffffffffff1673ffffffffffffffffffffffffffffffffffffffff168152602001908152602001600020549050919050565b610b23611079565b73ffffffffffffffffffffffffffffffffffffffff16610b41610ba3565b73ffffffffffffffffffffffffffffffffffffffff1614610b97576040517f08c379a0000000000000000000000000000000000000000000000000000000008152600401610b8e90612a70565b60405180910390fd5b610ba160006116e3565b565b6000600760009054906101000a900473ffffffffffffffffffffffffffffffffffffffff16905090565b606060018054610bdc90612d66565b80601f0160208091040260200160405190810160405280929190818152602001828054610c0890612d66565b8015610c555780601f10610c2a57610100808354040283529160200191610c55565b820191906000526020600020905b815481529060010190602001808311610c3857829003601f168201915b5050505050905090565b60006001600983604051610c7391906127b1565b908152602001604051809103902060009054906101000a900460ff1660ff16149050919050565b610cac610ca5611079565b83836117a9565b5050565b610cc1610cbb611079565b8361113a565b610d00576040517f08c379a0000000000000000000000000000000000000000000000000000000008152600401610cf790612af0565b60405180910390fd5b610d0c84848484611916565b50505050565b6060610d1d82611972565b9050919050565b610d2c611079565b73ffffffffffffffffffffffffffffffffffffffff16610d4a610ba3565b73ffffffffffffffffffffffffffffffffffffffff1614610da0576040517f08c379a0000000000000000000000000000000000000000000000000000000008152600401610d9790612a70565b60405180910390fd5b6000610dac6008610fff565b9050610db8600861147f565b610dc28382611ac4565b610dcc818361166f565b6001600983604051610dde91906127b1565b908152602001604051809103902060006101000a81548160ff021916908360ff160217905550505050565b6000600560008473ffffffffffffffffffffffffffffffffffffffff1673ffffffffffffffffffffffffffffffffffffffff16815260200190815260200160002060008373ffffffffffffffffffffffffffffffffffffffff1673ffffffffffffffffffffffffffffffffffffffff16815260200190815260200160002060009054906101000a900460ff16905092915050565b610ea5611079565b73ffffffffffffffffffffffffffffffffffffffff16610ec3610ba3565b73ffffffffffffffffffffffffffffffffffffffff1614610f19576040517f08c379a0000000000000000000000000000000000000000000000000000000008152600401610f1090612a70565b60405180910390fd5b600073ffffffffffffffffffffffffffffffffffffffff168173ffffffffffffffffffffffffffffffffffffffff161415610f89576040517f08c379a0000000000000000000000000000000000000000000000000000000008152600401610f80906128b0565b60405180910390fd5b610f92816116e3565b50565b60007f01ffc9a7000000000000000000000000000000000000000000000000000000007bffffffffffffffffffffffffffffffffffffffffffffffffffffffff1916827bffffffffffffffffffffffffffffffffffffffffffffffffffffffff1916149050919050565b600081600001549050919050565b60008073ffffffffffffffffffffffffffffffffffffffff166002600084815260200190815260200160002060009054906101000a900473ffffffffffffffffffffffffffffffffffffffff1673ffffffffffffffffffffffffffffffffffffffff1614159050919050565b600033905090565b816004600083815260200190815260200160002060006101000a81548173ffffffffffffffffffffffffffffffffffffffff021916908373ffffffffffffffffffffffffffffffffffffffff160217905550808273ffffffffffffffffffffffffffffffffffffffff166110f4836109b1565b73ffffffffffffffffffffffffffffffffffffffff167f8c5be1e5ebec7d5bd14f71427d1e84f3dd0314c0f7b2291e5b200ac8c7c3b92560405160405180910390a45050565b60006111458261100d565b611184576040517f08c379a000000000000000000000000000000000000000000000000000000000815260040161117b90612950565b60405180910390fd5b600061118f836109b1565b90508073ffffffffffffffffffffffffffffffffffffffff168473ffffffffffffffffffffffffffffffffffffffff1614806111fe57508373ffffffffffffffffffffffffffffffffffffffff166111e684610666565b73ffffffffffffffffffffffffffffffffffffffff16145b8061120f575061120e8185610e09565b5b91505092915050565b8273ffffffffffffffffffffffffffffffffffffffff16611238826109b1565b73ffffffffffffffffffffffffffffffffffffffff161461128e576040517f08c379a0000000000000000000000000000000000000000000000000000000008152600401611285906128d0565b60405180910390fd5b600073ffffffffffffffffffffffffffffffffffffffff168273ffffffffffffffffffffffffffffffffffffffff1614156112fe576040517f08c379a00000000000000000000000000000000000000000000000000000000081526004016112f590612910565b60405180910390fd5b611309838383611ae2565b611314600082611081565b6001600360008573ffffffffffffffffffffffffffffffffffffffff1673ffffffffffffffffffffffffffffffffffffffff16815260200190815260200160002060008282546113649190612c7c565b925050819055506001600360008473ffffffffffffffffffffffffffffffffffffffff1673ffffffffffffffffffffffffffffffffffffffff16815260200190815260200160002060008282546113bb9190612bf5565b92505081905550816002600083815260200190815260200160002060006101000a81548173ffffffffffffffffffffffffffffffffffffffff021916908373ffffffffffffffffffffffffffffffffffffffff160217905550808273ffffffffffffffffffffffffffffffffffffffff168473ffffffffffffffffffffffffffffffffffffffff167fddf252ad1be2c89b69c2b068fc378daa952ba7f163c4a11628f55a4df523b3ef60405160405180910390a461147a838383611ae7565b505050565b6001816000016000828254019250508190555050565b600073ffffffffffffffffffffffffffffffffffffffff168273ffffffffffffffffffffffffffffffffffffffff161415611505576040517f08c379a00000000000000000000000000000000000000000000000000000000081526004016114fc90612a10565b60405180910390fd5b61150e8161100d565b1561154e576040517f08c379a0000000000000000000000000000000000000000000000000000000008152600401611545906128f0565b60405180910390fd5b61155a60008383611ae2565b6001600360008473ffffffffffffffffffffffffffffffffffffffff1673ffffffffffffffffffffffffffffffffffffffff16815260200190815260200160002060008282546115aa9190612bf5565b92505081905550816002600083815260200190815260200160002060006101000a81548173ffffffffffffffffffffffffffffffffffffffff021916908373ffffffffffffffffffffffffffffffffffffffff160217905550808273ffffffffffffffffffffffffffffffffffffffff16600073ffffffffffffffffffffffffffffffffffffffff167fddf252ad1be2c89b69c2b068fc378daa952ba7f163c4a11628f55a4df523b3ef60405160405180910390a461166b60008383611ae7565b5050565b6116788261100d565b6116b7576040517f08c379a00000000000000000000000000000000000000000000000000000000081526004016116ae906129d0565b60405180910390fd5b806006600084815260200190815260200160002090805190602001906116de929190611f92565b505050565b6000600760009054906101000a900473ffffffffffffffffffffffffffffffffffffffff16905081600760006101000a81548173ffffffffffffffffffffffffffffffffffffffff021916908373ffffffffffffffffffffffffffffffffffffffff1602179055508173ffffffffffffffffffffffffffffffffffffffff168173ffffffffffffffffffffffffffffffffffffffff167f8be0079c531659141344cd1fd0a4f28419497f9722a3daafe3b4186f6b6457e060405160405180910390a35050565b8173ffffffffffffffffffffffffffffffffffffffff168373ffffffffffffffffffffffffffffffffffffffff161415611818576040517f08c379a000000000000000000000000000000000000000000000000000000000815260040161180f90612930565b60405180910390fd5b80600560008573ffffffffffffffffffffffffffffffffffffffff1673ffffffffffffffffffffffffffffffffffffffff16815260200190815260200160002060008473ffffffffffffffffffffffffffffffffffffffff1673ffffffffffffffffffffffffffffffffffffffff16815260200190815260200160002060006101000a81548160ff0219169083151502179055508173ffffffffffffffffffffffffffffffffffffffff168373ffffffffffffffffffffffffffffffffffffffff167f17307eab39ab6107e8899845ad3d59bd9653f200f220920489ca2b5937696c31836040516119099190612853565b60405180910390a3505050565b611921848484611218565b61192d84848484611aec565b61196c576040517f08c379a000000000000000000000000000000000000000000000000000000000815260040161196390612890565b60405180910390fd5b50505050565b606061197d8261100d565b6119bc576040517f08c379a00000000000000000000000000000000000000000000000000000000081526004016119b390612a30565b60405180910390fd5b60006006600084815260200190815260200160002080546119dc90612d66565b80601f0160208091040260200160405190810160405280929190818152602001828054611a0890612d66565b8015611a555780601f10611a2a57610100808354040283529160200191611a55565b820191906000526020600020905b815481529060010190602001808311611a3857829003601f168201915b505050505090506000611a66611c83565b9050600081511415611a7c578192505050611abf565b600082511115611ab1578082604051602001611a999291906127c8565b60405160208183030381529060405292505050611abf565b611aba84611cc0565b925050505b919050565b611ade828260405180602001604052806000815250611d67565b5050565b505050565b505050565b6000611b0d8473ffffffffffffffffffffffffffffffffffffffff16611dc2565b15611c76578373ffffffffffffffffffffffffffffffffffffffff1663150b7a02611b36611079565b8786866040518563ffffffff1660e01b8152600401611b589493929190612807565b602060405180830381600087803b158015611b7257600080fd5b505af1925050508015611ba357506040513d601f19601f82011682018060405250810190611ba09190612392565b60015b611c26573d8060008114611bd3576040519150601f19603f3d011682016040523d82523d6000602084013e611bd8565b606091505b50600081511415611c1e576040517f08c379a0000000000000000000000000000000000000000000000000000000008152600401611c1590612890565b60405180910390fd5b805181602001fd5b63150b7a0260e01b7bffffffffffffffffffffffffffffffffffffffffffffffffffffffff1916817bffffffffffffffffffffffffffffffffffffffffffffffffffffffff191614915050611c7b565b600190505b949350505050565b60606040518060400160405280600781526020017f697066733a2f2f00000000000000000000000000000000000000000000000000815250905090565b6060611ccb8261100d565b611d0a576040517f08c379a0000000000000000000000000000000000000000000000000000000008152600401611d0190612ab0565b60405180910390fd5b6000611d14611c83565b90506000815111611d345760405180602001604052806000815250611d5f565b80611d3e84611de5565b604051602001611d4f9291906127c8565b6040516020818303038152906040525b915050919050565b611d718383611495565b611d7e6000848484611aec565b611dbd576040517f08c379a0000000000000000000000000000000000000000000000000000000008152600401611db490612890565b60405180910390fd5b505050565b6000808273ffffffffffffffffffffffffffffffffffffffff163b119050919050565b60606000821415611e2d576040518060400160405280600181526020017f30000000000000000000000000000000000000000000000000000000000000008152509050611f8d565b600082905060005b60008214611e5f578080611e4890612dc9565b915050600a82611e589190612c4b565b9150611e35565b60008167ffffffffffffffff811115611ea1577f4e487b7100000000000000000000000000000000000000000000000000000000600052604160045260246000fd5b6040519080825280601f01601f191660200182016040528015611ed35781602001600182028036833780820191505090505b5090505b60008514611f8657600182611eec9190612c7c565b9150600a85611efb9190612e12565b6030611f079190612bf5565b60f81b818381518110611f43577f4e487b7100000000000000000000000000000000000000000000000000000000600052603260045260246000fd5b60200101907effffffffffffffffffffffffffffffffffffffffffffffffffffffffffffff1916908160001a905350600a85611f7f9190612c4b565b9450611ed7565b8093505050505b919050565b828054611f9e90612d66565b90600052602060002090601f016020900481019282611fc05760008555612007565b82601f10611fd957805160ff1916838001178555612007565b82800160010185558215612007579182015b82811115612006578251825591602001919060010190611feb565b5b5090506120149190612018565b5090565b5b80821115612031576000816000905550600101612019565b5090565b600061204861204384612b50565b612b2b565b90508281526020810184848401111561206057600080fd5b61206b848285612d24565b509392505050565b600061208661208184612b81565b612b2b565b90508281526020810184848401111561209e57600080fd5b6120a9848285612d24565b509392505050565b6000813590506120c081613458565b92915050565b6000813590506120d58161346f565b92915050565b6000813590506120ea81613486565b92915050565b6000815190506120ff81613486565b92915050565b600082601f83011261211657600080fd5b8135612126848260208601612035565b91505092915050565b600082601f83011261214057600080fd5b8135612150848260208601612073565b91505092915050565b6000813590506121688161349d565b92915050565b60006020828403121561218057600080fd5b600061218e848285016120b1565b91505092915050565b600080604083850312156121aa57600080fd5b60006121b8858286016120b1565b92505060206121c9858286016120b1565b9150509250929050565b6000806000606084860312156121e857600080fd5b60006121f6868287016120b1565b9350506020612207868287016120b1565b925050604061221886828701612159565b9150509250925092565b6000806000806080858703121561223857600080fd5b6000612246878288016120b1565b9450506020612257878288016120b1565b935050604061226887828801612159565b925050606085013567ffffffffffffffff81111561228557600080fd5b61229187828801612105565b91505092959194509250565b600080604083850312156122b057600080fd5b60006122be858286016120b1565b92505060206122cf858286016120c6565b9150509250929050565b600080604083850312156122ec57600080fd5b60006122fa858286016120b1565b925050602083013567ffffffffffffffff81111561231757600080fd5b6123238582860161212f565b9150509250929050565b6000806040838503121561234057600080fd5b600061234e858286016120b1565b925050602061235f85828601612159565b9150509250929050565b60006020828403121561237b57600080fd5b6000612389848285016120db565b91505092915050565b6000602082840312156123a457600080fd5b60006123b2848285016120f0565b91505092915050565b6000602082840312156123cd57600080fd5b600082013567ffffffffffffffff8111156123e757600080fd5b6123f38482850161212f565b91505092915050565b60006020828403121561240e57600080fd5b600061241c84828501612159565b91505092915050565b61242e81612cb0565b82525050565b61243d81612cc2565b82525050565b600061244e82612bb2565b6124588185612bc8565b9350612468818560208601612d33565b61247181612eff565b840191505092915050565b600061248782612bbd565b6124918185612bd9565b93506124a1818560208601612d33565b6124aa81612eff565b840191505092915050565b60006124c082612bbd565b6124ca8185612bea565b93506124da818560208601612d33565b80840191505092915050565b60006124f3603283612bd9565b91506124fe82612f10565b604082019050919050565b6000612516602683612bd9565b915061252182612f5f565b604082019050919050565b6000612539602583612bd9565b915061254482612fae565b604082019050919050565b600061255c601c83612bd9565b915061256782612ffd565b602082019050919050565b600061257f602483612bd9565b915061258a82613026565b604082019050919050565b60006125a2601983612bd9565b91506125ad82613075565b602082019050919050565b60006125c5602c83612bd9565b91506125d08261309e565b604082019050919050565b60006125e8603883612bd9565b91506125f3826130ed565b604082019050919050565b600061260b602a83612bd9565b91506126168261313c565b604082019050919050565b600061262e602983612bd9565b91506126398261318b565b604082019050919050565b6000612651602e83612bd9565b915061265c826131da565b604082019050919050565b6000612674601a83612bd9565b915061267f82613229565b602082019050919050565b6000612697602083612bd9565b91506126a282613252565b602082019050919050565b60006126ba603183612bd9565b91506126c58261327b565b604082019050919050565b60006126dd602c83612bd9565b91506126e8826132ca565b604082019050919050565b6000612700602083612bd9565b915061270b82613319565b602082019050919050565b6000612723601683612bd9565b915061272e82613342565b602082019050919050565b6000612746602f83612bd9565b91506127518261336b565b604082019050919050565b6000612769602183612bd9565b9150612774826133ba565b604082019050919050565b600061278c603183612bd9565b915061279782613409565b604082019050919050565b6127ab81612d1a565b82525050565b60006127bd82846124b5565b915081905092915050565b60006127d482856124b5565b91506127e082846124b5565b91508190509392505050565b60006020820190506128016000830184612425565b92915050565b600060808201905061281c6000830187612425565b6128296020830186612425565b61283660408301856127a2565b81810360608301526128488184612443565b905095945050505050565b60006020820190506128686000830184612434565b92915050565b60006020820190508181036000830152612888818461247c565b905092915050565b600060208201905081810360008301526128a9816124e6565b9050919050565b600060208201905081810360008301526128c981612509565b9050919050565b600060208201905081810360008301526128e98161252c565b9050919050565b600060208201905081810360008301526129098161254f565b9050919050565b6000602082019050818103600083015261292981612572565b9050919050565b6000602082019050818103600083015261294981612595565b9050919050565b60006020820190508181036000830152612969816125b8565b9050919050565b60006020820190508181036000830152612989816125db565b9050919050565b600060208201905081810360008301526129a9816125fe565b9050919050565b600060208201905081810360008301526129c981612621565b9050919050565b600060208201905081810360008301526129e981612644565b9050919050565b60006020820190508181036000830152612a0981612667565b9050919050565b60006020820190508181036000830152612a298161268a565b9050919050565b60006020820190508181036000830152612a49816126ad565b9050919050565b60006020820190508181036000830152612a69816126d0565b9050919050565b60006020820190508181036000830152612a89816126f3565b9050919050565b60006020820190508181036000830152612aa981612716565b9050919050565b60006020820190508181036000830152612ac981612739565b9050919050565b60006020820190508181036000830152612ae98161275c565b9050919050565b60006020820190508181036000830152612b098161277f565b9050919050565b6000602082019050612b2560008301846127a2565b92915050565b6000612b35612b46565b9050612b418282612d98565b919050565b6000604051905090565b600067ffffffffffffffff821115612b6b57612b6a612ed0565b5b612b7482612eff565b9050602081019050919050565b600067ffffffffffffffff821115612b9c57612b9b612ed0565b5b612ba582612eff565b9050602081019050919050565b600081519050919050565b600081519050919050565b600082825260208201905092915050565b600082825260208201905092915050565b600081905092915050565b6000612c0082612d1a565b9150612c0b83612d1a565b9250827fffffffffffffffffffffffffffffffffffffffffffffffffffffffffffffffff03821115612c4057612c3f612e43565b5b828201905092915050565b6000612c5682612d1a565b9150612c6183612d1a565b925082612c7157612c70612e72565b5b828204905092915050565b6000612c8782612d1a565b9150612c9283612d1a565b925082821015612ca557612ca4612e43565b5b828203905092915050565b6000612cbb82612cfa565b9050919050565b60008115159050919050565b60007fffffffff0000000000000000000000000000000000000000000000000000000082169050919050565b600073ffffffffffffffffffffffffffffffffffffffff82169050919050565b6000819050919050565b82818337600083830152505050565b60005b83811015612d51578082015181840152602081019050612d36565b83811115612d60576000848401525b50505050565b60006002820490506001821680612d7e57607f821691505b60208210811415612d9257612d91612ea1565b5b50919050565b612da182612eff565b810181811067ffffffffffffffff82111715612dc057612dbf612ed0565b5b80604052505050565b6000612dd482612d1a565b91507fffffffffffffffffffffffffffffffffffffffffffffffffffffffffffffffff821415612e0757612e06612e43565b5b600182019050919050565b6000612e1d82612d1a565b9150612e2883612d1a565b925082612e3857612e37612e72565b5b828206905092915050565b7f4e487b7100000000000000000000000000000000000000000000000000000000600052601160045260246000fd5b7f4e487b7100000000000000000000000000000000000000000000000000000000600052601260045260246000fd5b7f4e487b7100000000000000000000000000000000000000000000000000000000600052602260045260246000fd5b7f4e487b7100000000000000000000000000000000000000000000000000000000600052604160045260246000fd5b6000601f19601f8301169050919050565b7f4552433732313a207472616e7366657220746f206e6f6e20455243373231526560008201527f63656976657220696d706c656d656e7465720000000000000000000000000000602082015250565b7f4f776e61626c653a206e6577206f776e657220697320746865207a65726f206160008201527f6464726573730000000000000000000000000000000000000000000000000000602082015250565b7f4552433732313a207472616e736665722066726f6d20696e636f72726563742060008201527f6f776e6572000000000000000000000000000000000000000000000000000000602082015250565b7f4552433732313a20746f6b656e20616c7265616479206d696e74656400000000600082015250565b7f4552433732313a207472616e7366657220746f20746865207a65726f2061646460008201527f7265737300000000000000000000000000000000000000000000000000000000602082015250565b7f4552433732313a20617070726f766520746f2063616c6c657200000000000000600082015250565b7f4552433732313a206f70657261746f7220717565727920666f72206e6f6e657860008201527f697374656e7420746f6b656e0000000000000000000000000000000000000000602082015250565b7f4552433732313a20617070726f76652063616c6c6572206973206e6f74206f7760008201527f6e6572206e6f7220617070726f76656420666f7220616c6c0000000000000000602082015250565b7f4552433732313a2062616c616e636520717565727920666f7220746865207a6560008201527f726f206164647265737300000000000000000000000000000000000000000000602082015250565b7f4552433732313a206f776e657220717565727920666f72206e6f6e657869737460008201527f656e7420746f6b656e0000000000000000000000000000000000000000000000602082015250565b7f45524337323155524953746f726167653a2055524920736574206f66206e6f6e60008201527f6578697374656e7420746f6b656e000000000000000000000000000000000000602082015250565b7f5b4552524f525d204e465420616c7265616479206d696e746564000000000000600082015250565b7f4552433732313a206d696e7420746f20746865207a65726f2061646472657373600082015250565b7f45524337323155524953746f726167653a2055524920717565727920666f722060008201527f6e6f6e6578697374656e7420746f6b656e000000000000000000000000000000602082015250565b7f4552433732313a20617070726f76656420717565727920666f72206e6f6e657860008201527f697374656e7420746f6b656e0000000000000000000000000000000000000000602082015250565b7f4f776e61626c653a2063616c6c6572206973206e6f7420746865206f776e6572600082015250565b7f5b4552524f525d204e65656420746f2070617920757000000000000000000000600082015250565b7f4552433732314d657461646174613a2055524920717565727920666f72206e6f60008201527f6e6578697374656e7420746f6b656e0000000000000000000000000000000000602082015250565b7f4552433732313a20617070726f76616c20746f2063757272656e74206f776e6560008201527f7200000000000000000000000000000000000000000000000000000000000000602082015250565b7f4552433732313a207472616e736665722063616c6c6572206973206e6f74206f60008201527f776e6572206e6f7220617070726f766564000000000000000000000000000000602082015250565b61346181612cb0565b811461346c57600080fd5b50565b61347881612cc2565b811461348357600080fd5b50565b61348f81612cce565b811461349a57600080fd5b50565b6134a681612d1a565b81146134b157600080fd5b5056fea2646970667358221220813395d674350d67c29980af53094569acfd99e92cabbfe9cb3dc9a6a66f95e364736f6c63430008040033",
  "linkReferences": {},
  "deployedLinkReferences": {}
}