{
  "_format": "hh-sol-artifact-1",
  "contractName": "Verinft",
  "sourceName": "contracts/Verinft.sol",
  "abi": [
    {
      "inputs": [],
      "stateMutability": "nonpayable",
      "type": "constructor"
    },
    {
      "anonymous": false,
      "inputs": [
        {
          "indexed": true,
          "internalType": "address",
          "name": "owner",
          "type": "address"
        },
        {
          "indexed": true,
          "internalType": "address",
          "name": "approved",
          "type": "address"
        },
        {
          "indexed": true,
          "internalType": "uint256",
          "name": "tokenId",
          "type": "uint256"
        }
      ],
      "name": "Approval",
      "type": "event"
    },
    {
      "anonymous": false,
      "inputs": [
        {
          "indexed": true,
          "internalType": "address",
          "name": "owner",
          "type": "address"
        },
        {
          "indexed": true,
          "internalType": "address",
          "name": "operator",
          "type": "address"
        },
        {
          "indexed": false,
          "internalType": "bool",
          "name": "approved",
          "type": "bool"
        }
      ],
      "name": "ApprovalForAll",
      "type": "event"
    },
    {
      "anonymous": false,
      "inputs": [
        {
          "indexed": true,
          "internalType": "address",
          "name": "previousOwner",
          "type": "address"
        },
        {
          "indexed": true,
          "internalType": "address",
          "name": "newOwner",
          "type": "address"
        }
      ],
      "name": "OwnershipTransferred",
      "type": "event"
    },
    {
      "anonymous": false,
      "inputs": [
        {
          "indexed": true,
          "internalType": "address",
          "name": "from",
          "type": "address"
        },
        {
          "indexed": true,
          "internalType": "address",
          "name": "to",
          "type": "address"
        },
        {
          "indexed": true,
          "internalType": "uint256",
          "name": "tokenId",
          "type": "uint256"
        }
      ],
      "name": "Transfer",
      "type": "event"
    },
    {
      "inputs": [
        {
          "internalType": "address",
          "name": "to",
          "type": "address"
        },
        {
          "internalType": "uint256",
          "name": "tokenId",
          "type": "uint256"
        }
      ],
      "name": "approve",
      "outputs": [],
      "stateMutability": "nonpayable",
      "type": "function"
    },
    {
      "inputs": [
        {
          "internalType": "address",
          "name": "owner",
          "type": "address"
        }
      ],
      "name": "balanceOf",
      "outputs": [
        {
          "internalType": "uint256",
          "name": "",
          "type": "uint256"
        }
      ],
      "stateMutability": "view",
      "type": "function"
    },
    {
      "inputs": [],
      "name": "count",
      "outputs": [
        {
          "internalType": "uint256",
          "name": "",
          "type": "uint256"
        }
      ],
      "stateMutability": "view",
      "type": "function"
    },
    {
      "inputs": [
        {
          "internalType": "string",
          "name": "tokenURI",
          "type": "string"
        }
      ],
      "name": "createVerinft",
      "outputs": [
        {
          "internalType": "uint256",
          "name": "",
          "type": "uint256"
        }
      ],
      "stateMutability": "nonpayable",
      "type": "function"
    },
    {
      "inputs": [
        {
          "internalType": "uint256",
          "name": "tokenId",
          "type": "uint256"
        }
      ],
      "name": "getApproved",
      "outputs": [
        {
          "internalType": "address",
          "name": "",
          "type": "address"
        }
      ],
      "stateMutability": "view",
      "type": "function"
    },
    {
      "inputs": [
        {
          "internalType": "address",
          "name": "owner",
          "type": "address"
        },
        {
          "internalType": "address",
          "name": "operator",
          "type": "address"
        }
      ],
      "name": "isApprovedForAll",
      "outputs": [
        {
          "internalType": "bool",
          "name": "",
          "type": "bool"
        }
      ],
      "stateMutability": "view",
      "type": "function"
    },
    {
      "inputs": [
        {
          "internalType": "string",
          "name": "uri",
          "type": "string"
        }
      ],
      "name": "isContentOwned",
      "outputs": [
        {
          "internalType": "bool",
          "name": "",
          "type": "bool"
        }
      ],
      "stateMutability": "view",
      "type": "function"
    },
    {
      "inputs": [],
      "name": "name",
      "outputs": [
        {
          "internalType": "string",
          "name": "",
          "type": "string"
        }
      ],
      "stateMutability": "view",
      "type": "function"
    },
    {
      "inputs": [],
      "name": "owner",
      "outputs": [
        {
          "internalType": "address",
          "name": "",
          "type": "address"
        }
      ],
      "stateMutability": "view",
      "type": "function"
    },
    {
      "inputs": [
        {
          "internalType": "uint256",
          "name": "tokenId",
          "type": "uint256"
        }
      ],
      "name": "ownerOf",
      "outputs": [
        {
          "internalType": "address",
          "name": "",
          "type": "address"
        }
      ],
      "stateMutability": "view",
      "type": "function"
    },
    {
      "inputs": [
        {
          "internalType": "address",
          "name": "recipient",
          "type": "address"
        },
        {
          "internalType": "string",
          "name": "metadataURI",
          "type": "string"
        }
      ],
      "name": "payToMint",
      "outputs": [
        {
          "internalType": "uint256",
          "name": "",
          "type": "uint256"
        }
      ],
      "stateMutability": "payable",
      "type": "function"
    },
    {
      "inputs": [],
      "name": "renounceOwnership",
      "outputs": [],
      "stateMutability": "nonpayable",
      "type": "function"
    },
    {
      "inputs": [
        {
          "internalType": "address",
          "name": "to",
          "type": "address"
        },
        {
          "internalType": "string",
          "name": "uri",
          "type": "string"
        }
      ],
      "name": "safeMint",
      "outputs": [],
      "stateMutability": "nonpayable",
      "type": "function"
    },
    {
      "inputs": [
        {
          "internalType": "address",
          "name": "from",
          "type": "address"
        },
        {
          "internalType": "address",
          "name": "to",
          "type": "address"
        },
        {
          "internalType": "uint256",
          "name": "tokenId",
          "type": "uint256"
        }
      ],
      "name": "safeTransferFrom",
      "outputs": [],
      "stateMutability": "nonpayable",
      "type": "function"
    },
    {
      "inputs": [
        {
          "internalType": "address",
          "name": "from",
          "type": "address"
        },
        {
          "internalType": "address",
          "name": "to",
          "type": "address"
        },
        {
          "internalType": "uint256",
          "name": "tokenId",
          "type": "uint256"
        },
        {
          "internalType": "bytes",
          "name": "_data",
          "type": "bytes"
        }
      ],
      "name": "safeTransferFrom",
      "outputs": [],
      "stateMutability": "nonpayable",
      "type": "function"
    },
    {
      "inputs": [
        {
          "internalType": "address",
          "name": "operator",
          "type": "address"
        },
        {
          "internalType": "bool",
          "name": "approved",
          "type": "bool"
        }
      ],
      "name": "setApprovalForAll",
      "outputs": [],
      "stateMutability": "nonpayable",
      "type": "function"
    },
    {
      "inputs": [
        {
          "internalType": "bytes4",
          "name": "interfaceId",
          "type": "bytes4"
        }
      ],
      "name": "supportsInterface",
      "outputs": [
        {
          "internalType": "bool",
          "name": "",
          "type": "bool"
        }
      ],
      "stateMutability": "view",
      "type": "function"
    },
    {
      "inputs": [],
      "name": "symbol",
      "outputs": [
        {
          "internalType": "string",
          "name": "",
          "type": "string"
        }
      ],
      "stateMutability": "view",
      "type": "function"
    },
    {
      "inputs": [
        {
          "internalType": "uint256",
          "name": "tokenId",
          "type": "uint256"
        }
      ],
      "name": "tokenURI",
      "outputs": [
        {
          "internalType": "string",
          "name": "",
          "type": "string"
        }
      ],
      "stateMutability": "view",
      "type": "function"
    },
    {
      "inputs": [
        {
          "internalType": "address",
          "name": "from",
          "type": "address"
        },
        {
          "internalType": "address",
          "name": "to",
          "type": "address"
        },
        {
          "internalType": "uint256",
          "name": "tokenId",
          "type": "uint256"
        }
      ],
      "name": "transferFrom",
      "outputs": [],
      "stateMutability": "nonpayable",
      "type": "function"
    },
    {
      "inputs": [
        {
          "internalType": "address",
          "name": "newOwner",
          "type": "address"
        }
      ],
      "name": "transferOwnership",
      "outputs": [],
      "stateMutability": "nonpayable",
      "type": "function"
    }
  ],
  "bytecode": "0x60806040523480156200001157600080fd5b506040518060400160405280600781526020017f566572696e6674000000000000000000000000000000000000000000000000008152506040518060400160405280600381526020017f5652540000000000000000000000000000000000000000000000000000000000815250816000908051906020019062000096929190620001a6565b508060019080519060200190620000af929190620001a6565b505050620000d2620000c6620000d860201b60201c565b620000e060201b60201c565b620002bb565b600033905090565b6000600760009054906101000a900473ffffffffffffffffffffffffffffffffffffffff16905081600760006101000a81548173ffffffffffffffffffffffffffffffffffffffff021916908373ffffffffffffffffffffffffffffffffffffffff1602179055508173ffffffffffffffffffffffffffffffffffffffff168173ffffffffffffffffffffffffffffffffffffffff167f8be0079c531659141344cd1fd0a4f28419497f9722a3daafe3b4186f6b6457e060405160405180910390a35050565b828054620001b49062000256565b90600052602060002090601f016020900481019282620001d8576000855562000224565b82601f10620001f357805160ff191683800117855562000224565b8280016001018555821562000224579182015b828111156200022357825182559160200191906001019062000206565b5b50905062000233919062000237565b5090565b5b808211156200025257600081600090555060010162000238565b5090565b600060028204905060018216806200026f57607f821691505b602082108114156200028657620002856200028c565b5b50919050565b7f4e487b7100000000000000000000000000000000000000000000000000000000600052602260045260246000fd5b61352d80620002cb6000396000f3fe6080604052600436106101295760003560e01c806370a08231116100ab578063a22cb4651161006f578063a22cb4651461040a578063b88d4fde14610433578063c87b56dd1461045c578063d204c45e14610499578063e985e9c5146104c2578063f2fde38b146104ff57610129565b806370a0823114610323578063715018a6146103605780638da5cb5b1461037757806395d89b41146103a25780639f1cabc6146103cd57610129565b8063095ea7b3116100f2578063095ea7b31461023b57806323b872dd1461026457806342842e0e1461028d578063615fd9e2146102b65780636352211e146102e657610129565b80622bafb71461012e57806301ffc9a71461016b57806306661abd146101a857806306fdde03146101d3578063081812fc146101fe575b600080fd5b34801561013a57600080fd5b50610155600480360381019061015091906123fe565b610528565b6040516101629190612b53565b60405180910390f35b34801561017757600080fd5b50610192600480360381019061018d91906123ac565b61055e565b60405161019f9190612896565b60405180910390f35b3480156101b457600080fd5b506101bd610640565b6040516101ca9190612b53565b60405180910390f35b3480156101df57600080fd5b506101e8610651565b6040516101f591906128b1565b60405180910390f35b34801561020a57600080fd5b506102256004803603810190610220919061243f565b6106e3565b604051610232919061282f565b60405180910390f35b34801561024757600080fd5b50610262600480360381019061025d9190612370565b610768565b005b34801561027057600080fd5b5061028b60048036038101906102869190612216565b610880565b005b34801561029957600080fd5b506102b460048036038101906102af9190612216565b6108e0565b005b6102d060048036038101906102cb919061231c565b610900565b6040516102dd9190612b53565b60405180910390f35b3480156102f257600080fd5b5061030d6004803603810190610308919061243f565b610a2c565b60405161031a919061282f565b60405180910390f35b34801561032f57600080fd5b5061034a600480360381019061034591906121b1565b610ade565b6040516103579190612b53565b60405180910390f35b34801561036c57600080fd5b50610375610b96565b005b34801561038357600080fd5b5061038c610c1e565b604051610399919061282f565b60405180910390f35b3480156103ae57600080fd5b506103b7610c48565b6040516103c491906128b1565b60405180910390f35b3480156103d957600080fd5b506103f460048036038101906103ef91906123fe565b610cda565b6040516104019190612896565b60405180910390f35b34801561041657600080fd5b50610431600480360381019061042c91906122e0565b610d15565b005b34801561043f57600080fd5b5061045a60048036038101906104559190612265565b610d2b565b005b34801561046857600080fd5b50610483600480360381019061047e919061243f565b610d8d565b60405161049091906128b1565b60405180910390f35b3480156104a557600080fd5b506104c060048036038101906104bb919061231c565b610d9f565b005b3480156104ce57600080fd5b506104e960048036038101906104e491906121da565b610e4c565b6040516104f69190612896565b60405180910390f35b34801561050b57600080fd5b50610526600480360381019061052191906121b1565b610ee0565b005b6000806105356008610fd8565b90506105413382610fe6565b61054b8184611004565b6105556008611078565b80915050919050565b60007f80ac58cd000000000000000000000000000000000000000000000000000000007bffffffffffffffffffffffffffffffffffffffffffffffffffffffff1916827bffffffffffffffffffffffffffffffffffffffffffffffffffffffff1916148061062957507f5b5e139f000000000000000000000000000000000000000000000000000000007bffffffffffffffffffffffffffffffffffffffffffffffffffffffff1916827bffffffffffffffffffffffffffffffffffffffffffffffffffffffff1916145b8061063957506106388261108e565b5b9050919050565b600061064c6008610fd8565b905090565b60606000805461066090612da9565b80601f016020809104026020016040519081016040528092919081815260200182805461068c90612da9565b80156106d95780601f106106ae576101008083540402835291602001916106d9565b820191906000526020600020905b8154815290600101906020018083116106bc57829003601f168201915b5050505050905090565b60006106ee826110f8565b61072d576040517f08c379a000000000000000000000000000000000000000000000000000000000815260040161072490612a93565b60405180910390fd5b6004600083815260200190815260200160002060009054906101000a900473ffffffffffffffffffffffffffffffffffffffff169050919050565b600061077382610a2c565b90508073ffffffffffffffffffffffffffffffffffffffff168373ffffffffffffffffffffffffffffffffffffffff1614156107e4576040517f08c379a00000000000000000000000000000000000000000000000000000000081526004016107db90612b13565b60405180910390fd5b8073ffffffffffffffffffffffffffffffffffffffff16610803611164565b73ffffffffffffffffffffffffffffffffffffffff16148061083257506108318161082c611164565b610e4c565b5b610871576040517f08c379a0000000000000000000000000000000000000000000000000000000008152600401610868906129b3565b60405180910390fd5b61087b838361116c565b505050565b61089161088b611164565b82611225565b6108d0576040517f08c379a00000000000000000000000000000000000000000000000000000000081526004016108c790612b33565b60405180910390fd5b6108db838383611303565b505050565b6108fb83838360405180602001604052806000815250610d2b565b505050565b6000600160098360405161091491906127f4565b908152602001604051809103902060009054906101000a900460ff1660ff161415610974576040517f08c379a000000000000000000000000000000000000000000000000000000000815260040161096b90612a33565b60405180910390fd5b66b1a2bc2ec500003410156109be576040517f08c379a00000000000000000000000000000000000000000000000000000000081526004016109b590612ad3565b60405180910390fd5b60006109ca6008610fd8565b90506109d66008611078565b60016009846040516109e891906127f4565b908152602001604051809103902060006101000a81548160ff021916908360ff160217905550610a18848261156a565b610a228184611004565b8091505092915050565b6000806002600084815260200190815260200160002060009054906101000a900473ffffffffffffffffffffffffffffffffffffffff169050600073ffffffffffffffffffffffffffffffffffffffff168173ffffffffffffffffffffffffffffffffffffffff161415610ad5576040517f08c379a0000000000000000000000000000000000000000000000000000000008152600401610acc906129f3565b60405180910390fd5b80915050919050565b60008073ffffffffffffffffffffffffffffffffffffffff168273ffffffffffffffffffffffffffffffffffffffff161415610b4f576040517f08c379a0000000000000000000000000000000000000000000000000000000008152600401610b46906129d3565b60405180910390fd5b600360008373ffffffffffffffffffffffffffffffffffffffff1673ffffffffffffffffffffffffffffffffffffffff168152602001908152602001600020549050919050565b610b9e611164565b73ffffffffffffffffffffffffffffffffffffffff16610bbc610c1e565b73ffffffffffffffffffffffffffffffffffffffff1614610c12576040517f08c379a0000000000000000000000000000000000000000000000000000000008152600401610c0990612ab3565b60405180910390fd5b610c1c6000611744565b565b6000600760009054906101000a900473ffffffffffffffffffffffffffffffffffffffff16905090565b606060018054610c5790612da9565b80601f0160208091040260200160405190810160405280929190818152602001828054610c8390612da9565b8015610cd05780601f10610ca557610100808354040283529160200191610cd0565b820191906000526020600020905b815481529060010190602001808311610cb357829003601f168201915b5050505050905090565b60006001600983604051610cee91906127f4565b908152602001604051809103902060009054906101000a900460ff1660ff16149050919050565b610d27610d20611164565b838361180a565b5050565b610d3c610d36611164565b83611225565b610d7b576040517f08c379a0000000000000000000000000000000000000000000000000000000008152600401610d7290612b33565b60405180910390fd5b610d8784848484611977565b50505050565b6060610d98826119d3565b9050919050565b610da7611164565b73ffffffffffffffffffffffffffffffffffffffff16610dc5610c1e565b73ffffffffffffffffffffffffffffffffffffffff1614610e1b576040517f08c379a0000000000000000000000000000000000000000000000000000000008152600401610e1290612ab3565b60405180910390fd5b6000610e276008610fd8565b9050610e336008611078565b610e3d8382610fe6565b610e478183611004565b505050565b6000600560008473ffffffffffffffffffffffffffffffffffffffff1673ffffffffffffffffffffffffffffffffffffffff16815260200190815260200160002060008373ffffffffffffffffffffffffffffffffffffffff1673ffffffffffffffffffffffffffffffffffffffff16815260200190815260200160002060009054906101000a900460ff16905092915050565b610ee8611164565b73ffffffffffffffffffffffffffffffffffffffff16610f06610c1e565b73ffffffffffffffffffffffffffffffffffffffff1614610f5c576040517f08c379a0000000000000000000000000000000000000000000000000000000008152600401610f5390612ab3565b60405180910390fd5b600073ffffffffffffffffffffffffffffffffffffffff168173ffffffffffffffffffffffffffffffffffffffff161415610fcc576040517f08c379a0000000000000000000000000000000000000000000000000000000008152600401610fc3906128f3565b60405180910390fd5b610fd581611744565b50565b600081600001549050919050565b611000828260405180602001604052806000815250611b25565b5050565b61100d826110f8565b61104c576040517f08c379a000000000000000000000000000000000000000000000000000000000815260040161104390612a13565b60405180910390fd5b80600660008481526020019081526020016000209080519060200190611073929190611fd5565b505050565b6001816000016000828254019250508190555050565b60007f01ffc9a7000000000000000000000000000000000000000000000000000000007bffffffffffffffffffffffffffffffffffffffffffffffffffffffff1916827bffffffffffffffffffffffffffffffffffffffffffffffffffffffff1916149050919050565b60008073ffffffffffffffffffffffffffffffffffffffff166002600084815260200190815260200160002060009054906101000a900473ffffffffffffffffffffffffffffffffffffffff1673ffffffffffffffffffffffffffffffffffffffff1614159050919050565b600033905090565b816004600083815260200190815260200160002060006101000a81548173ffffffffffffffffffffffffffffffffffffffff021916908373ffffffffffffffffffffffffffffffffffffffff160217905550808273ffffffffffffffffffffffffffffffffffffffff166111df83610a2c565b73ffffffffffffffffffffffffffffffffffffffff167f8c5be1e5ebec7d5bd14f71427d1e84f3dd0314c0f7b2291e5b200ac8c7c3b92560405160405180910390a45050565b6000611230826110f8565b61126f576040517f08c379a000000000000000000000000000000000000000000000000000000000815260040161126690612993565b60405180910390fd5b600061127a83610a2c565b90508073ffffffffffffffffffffffffffffffffffffffff168473ffffffffffffffffffffffffffffffffffffffff1614806112e957508373ffffffffffffffffffffffffffffffffffffffff166112d1846106e3565b73ffffffffffffffffffffffffffffffffffffffff16145b806112fa57506112f98185610e4c565b5b91505092915050565b8273ffffffffffffffffffffffffffffffffffffffff1661132382610a2c565b73ffffffffffffffffffffffffffffffffffffffff1614611379576040517f08c379a000000000000000000000000000000000000000000000000000000000815260040161137090612913565b60405180910390fd5b600073ffffffffffffffffffffffffffffffffffffffff168273ffffffffffffffffffffffffffffffffffffffff1614156113e9576040517f08c379a00000000000000000000000000000000000000000000000000000000081526004016113e090612953565b60405180910390fd5b6113f4838383611b80565b6113ff60008261116c565b6001600360008573ffffffffffffffffffffffffffffffffffffffff1673ffffffffffffffffffffffffffffffffffffffff168152602001908152602001600020600082825461144f9190612cbf565b925050819055506001600360008473ffffffffffffffffffffffffffffffffffffffff1673ffffffffffffffffffffffffffffffffffffffff16815260200190815260200160002060008282546114a69190612c38565b92505081905550816002600083815260200190815260200160002060006101000a81548173ffffffffffffffffffffffffffffffffffffffff021916908373ffffffffffffffffffffffffffffffffffffffff160217905550808273ffffffffffffffffffffffffffffffffffffffff168473ffffffffffffffffffffffffffffffffffffffff167fddf252ad1be2c89b69c2b068fc378daa952ba7f163c4a11628f55a4df523b3ef60405160405180910390a4611565838383611b85565b505050565b600073ffffffffffffffffffffffffffffffffffffffff168273ffffffffffffffffffffffffffffffffffffffff1614156115da576040517f08c379a00000000000000000000000000000000000000000000000000000000081526004016115d190612a53565b60405180910390fd5b6115e3816110f8565b15611623576040517f08c379a000000000000000000000000000000000000000000000000000000000815260040161161a90612933565b60405180910390fd5b61162f60008383611b80565b6001600360008473ffffffffffffffffffffffffffffffffffffffff1673ffffffffffffffffffffffffffffffffffffffff168152602001908152602001600020600082825461167f9190612c38565b92505081905550816002600083815260200190815260200160002060006101000a81548173ffffffffffffffffffffffffffffffffffffffff021916908373ffffffffffffffffffffffffffffffffffffffff160217905550808273ffffffffffffffffffffffffffffffffffffffff16600073ffffffffffffffffffffffffffffffffffffffff167fddf252ad1be2c89b69c2b068fc378daa952ba7f163c4a11628f55a4df523b3ef60405160405180910390a461174060008383611b85565b5050565b6000600760009054906101000a900473ffffffffffffffffffffffffffffffffffffffff16905081600760006101000a81548173ffffffffffffffffffffffffffffffffffffffff021916908373ffffffffffffffffffffffffffffffffffffffff1602179055508173ffffffffffffffffffffffffffffffffffffffff168173ffffffffffffffffffffffffffffffffffffffff167f8be0079c531659141344cd1fd0a4f28419497f9722a3daafe3b4186f6b6457e060405160405180910390a35050565b8173ffffffffffffffffffffffffffffffffffffffff168373ffffffffffffffffffffffffffffffffffffffff161415611879576040517f08c379a000000000000000000000000000000000000000000000000000000000815260040161187090612973565b60405180910390fd5b80600560008573ffffffffffffffffffffffffffffffffffffffff1673ffffffffffffffffffffffffffffffffffffffff16815260200190815260200160002060008473ffffffffffffffffffffffffffffffffffffffff1673ffffffffffffffffffffffffffffffffffffffff16815260200190815260200160002060006101000a81548160ff0219169083151502179055508173ffffffffffffffffffffffffffffffffffffffff168373ffffffffffffffffffffffffffffffffffffffff167f17307eab39ab6107e8899845ad3d59bd9653f200f220920489ca2b5937696c318360405161196a9190612896565b60405180910390a3505050565b611982848484611303565b61198e84848484611b8a565b6119cd576040517f08c379a00000000000000000000000000000000000000000000000000000000081526004016119c4906128d3565b60405180910390fd5b50505050565b60606119de826110f8565b611a1d576040517f08c379a0000000000000000000000000000000000000000000000000000000008152600401611a1490612a73565b60405180910390fd5b6000600660008481526020019081526020016000208054611a3d90612da9565b80601f0160208091040260200160405190810160405280929190818152602001828054611a6990612da9565b8015611ab65780601f10611a8b57610100808354040283529160200191611ab6565b820191906000526020600020905b815481529060010190602001808311611a9957829003601f168201915b505050505090506000611ac7611d21565b9050600081511415611add578192505050611b20565b600082511115611b12578082604051602001611afa92919061280b565b60405160208183030381529060405292505050611b20565b611b1b84611d5e565b925050505b919050565b611b2f838361156a565b611b3c6000848484611b8a565b611b7b576040517f08c379a0000000000000000000000000000000000000000000000000000000008152600401611b72906128d3565b60405180910390fd5b505050565b505050565b505050565b6000611bab8473ffffffffffffffffffffffffffffffffffffffff16611e05565b15611d14578373ffffffffffffffffffffffffffffffffffffffff1663150b7a02611bd4611164565b8786866040518563ffffffff1660e01b8152600401611bf6949392919061284a565b602060405180830381600087803b158015611c1057600080fd5b505af1925050508015611c4157506040513d601f19601f82011682018060405250810190611c3e91906123d5565b60015b611cc4573d8060008114611c71576040519150601f19603f3d011682016040523d82523d6000602084013e611c76565b606091505b50600081511415611cbc576040517f08c379a0000000000000000000000000000000000000000000000000000000008152600401611cb3906128d3565b60405180910390fd5b805181602001fd5b63150b7a0260e01b7bffffffffffffffffffffffffffffffffffffffffffffffffffffffff1916817bffffffffffffffffffffffffffffffffffffffffffffffffffffffff191614915050611d19565b600190505b949350505050565b60606040518060400160405280600781526020017f697066733a2f2f00000000000000000000000000000000000000000000000000815250905090565b6060611d69826110f8565b611da8576040517f08c379a0000000000000000000000000000000000000000000000000000000008152600401611d9f90612af3565b60405180910390fd5b6000611db2611d21565b90506000815111611dd25760405180602001604052806000815250611dfd565b80611ddc84611e28565b604051602001611ded92919061280b565b6040516020818303038152906040525b915050919050565b6000808273ffffffffffffffffffffffffffffffffffffffff163b119050919050565b60606000821415611e70576040518060400160405280600181526020017f30000000000000000000000000000000000000000000000000000000000000008152509050611fd0565b600082905060005b60008214611ea2578080611e8b90612e0c565b915050600a82611e9b9190612c8e565b9150611e78565b60008167ffffffffffffffff811115611ee4577f4e487b7100000000000000000000000000000000000000000000000000000000600052604160045260246000fd5b6040519080825280601f01601f191660200182016040528015611f165781602001600182028036833780820191505090505b5090505b60008514611fc957600182611f2f9190612cbf565b9150600a85611f3e9190612e55565b6030611f4a9190612c38565b60f81b818381518110611f86577f4e487b7100000000000000000000000000000000000000000000000000000000600052603260045260246000fd5b60200101907effffffffffffffffffffffffffffffffffffffffffffffffffffffffffffff1916908160001a905350600a85611fc29190612c8e565b9450611f1a565b8093505050505b919050565b828054611fe190612da9565b90600052602060002090601f016020900481019282612003576000855561204a565b82601f1061201c57805160ff191683800117855561204a565b8280016001018555821561204a579182015b8281111561204957825182559160200191906001019061202e565b5b509050612057919061205b565b5090565b5b8082111561207457600081600090555060010161205c565b5090565b600061208b61208684612b93565b612b6e565b9050828152602081018484840111156120a357600080fd5b6120ae848285612d67565b509392505050565b60006120c96120c484612bc4565b612b6e565b9050828152602081018484840111156120e157600080fd5b6120ec848285612d67565b509392505050565b6000813590506121038161349b565b92915050565b600081359050612118816134b2565b92915050565b60008135905061212d816134c9565b92915050565b600081519050612142816134c9565b92915050565b600082601f83011261215957600080fd5b8135612169848260208601612078565b91505092915050565b600082601f83011261218357600080fd5b81356121938482602086016120b6565b91505092915050565b6000813590506121ab816134e0565b92915050565b6000602082840312156121c357600080fd5b60006121d1848285016120f4565b91505092915050565b600080604083850312156121ed57600080fd5b60006121fb858286016120f4565b925050602061220c858286016120f4565b9150509250929050565b60008060006060848603121561222b57600080fd5b6000612239868287016120f4565b935050602061224a868287016120f4565b925050604061225b8682870161219c565b9150509250925092565b6000806000806080858703121561227b57600080fd5b6000612289878288016120f4565b945050602061229a878288016120f4565b93505060406122ab8782880161219c565b925050606085013567ffffffffffffffff8111156122c857600080fd5b6122d487828801612148565b91505092959194509250565b600080604083850312156122f357600080fd5b6000612301858286016120f4565b925050602061231285828601612109565b9150509250929050565b6000806040838503121561232f57600080fd5b600061233d858286016120f4565b925050602083013567ffffffffffffffff81111561235a57600080fd5b61236685828601612172565b9150509250929050565b6000806040838503121561238357600080fd5b6000612391858286016120f4565b92505060206123a28582860161219c565b9150509250929050565b6000602082840312156123be57600080fd5b60006123cc8482850161211e565b91505092915050565b6000602082840312156123e757600080fd5b60006123f584828501612133565b91505092915050565b60006020828403121561241057600080fd5b600082013567ffffffffffffffff81111561242a57600080fd5b61243684828501612172565b91505092915050565b60006020828403121561245157600080fd5b600061245f8482850161219c565b91505092915050565b61247181612cf3565b82525050565b61248081612d05565b82525050565b600061249182612bf5565b61249b8185612c0b565b93506124ab818560208601612d76565b6124b481612f42565b840191505092915050565b60006124ca82612c00565b6124d48185612c1c565b93506124e4818560208601612d76565b6124ed81612f42565b840191505092915050565b600061250382612c00565b61250d8185612c2d565b935061251d818560208601612d76565b80840191505092915050565b6000612536603283612c1c565b915061254182612f53565b604082019050919050565b6000612559602683612c1c565b915061256482612fa2565b604082019050919050565b600061257c602583612c1c565b915061258782612ff1565b604082019050919050565b600061259f601c83612c1c565b91506125aa82613040565b602082019050919050565b60006125c2602483612c1c565b91506125cd82613069565b604082019050919050565b60006125e5601983612c1c565b91506125f0826130b8565b602082019050919050565b6000612608602c83612c1c565b9150612613826130e1565b604082019050919050565b600061262b603883612c1c565b915061263682613130565b604082019050919050565b600061264e602a83612c1c565b91506126598261317f565b604082019050919050565b6000612671602983612c1c565b915061267c826131ce565b604082019050919050565b6000612694602e83612c1c565b915061269f8261321d565b604082019050919050565b60006126b7601a83612c1c565b91506126c28261326c565b602082019050919050565b60006126da602083612c1c565b91506126e582613295565b602082019050919050565b60006126fd603183612c1c565b9150612708826132be565b604082019050919050565b6000612720602c83612c1c565b915061272b8261330d565b604082019050919050565b6000612743602083612c1c565b915061274e8261335c565b602082019050919050565b6000612766601683612c1c565b915061277182613385565b602082019050919050565b6000612789602f83612c1c565b9150612794826133ae565b604082019050919050565b60006127ac602183612c1c565b91506127b7826133fd565b604082019050919050565b60006127cf603183612c1c565b91506127da8261344c565b604082019050919050565b6127ee81612d5d565b82525050565b600061280082846124f8565b915081905092915050565b600061281782856124f8565b915061282382846124f8565b91508190509392505050565b60006020820190506128446000830184612468565b92915050565b600060808201905061285f6000830187612468565b61286c6020830186612468565b61287960408301856127e5565b818103606083015261288b8184612486565b905095945050505050565b60006020820190506128ab6000830184612477565b92915050565b600060208201905081810360008301526128cb81846124bf565b905092915050565b600060208201905081810360008301526128ec81612529565b9050919050565b6000602082019050818103600083015261290c8161254c565b9050919050565b6000602082019050818103600083015261292c8161256f565b9050919050565b6000602082019050818103600083015261294c81612592565b9050919050565b6000602082019050818103600083015261296c816125b5565b9050919050565b6000602082019050818103600083015261298c816125d8565b9050919050565b600060208201905081810360008301526129ac816125fb565b9050919050565b600060208201905081810360008301526129cc8161261e565b9050919050565b600060208201905081810360008301526129ec81612641565b9050919050565b60006020820190508181036000830152612a0c81612664565b9050919050565b60006020820190508181036000830152612a2c81612687565b9050919050565b60006020820190508181036000830152612a4c816126aa565b9050919050565b60006020820190508181036000830152612a6c816126cd565b9050919050565b60006020820190508181036000830152612a8c816126f0565b9050919050565b60006020820190508181036000830152612aac81612713565b9050919050565b60006020820190508181036000830152612acc81612736565b9050919050565b60006020820190508181036000830152612aec81612759565b9050919050565b60006020820190508181036000830152612b0c8161277c565b9050919050565b60006020820190508181036000830152612b2c8161279f565b9050919050565b60006020820190508181036000830152612b4c816127c2565b9050919050565b6000602082019050612b6860008301846127e5565b92915050565b6000612b78612b89565b9050612b848282612ddb565b919050565b6000604051905090565b600067ffffffffffffffff821115612bae57612bad612f13565b5b612bb782612f42565b9050602081019050919050565b600067ffffffffffffffff821115612bdf57612bde612f13565b5b612be882612f42565b9050602081019050919050565b600081519050919050565b600081519050919050565b600082825260208201905092915050565b600082825260208201905092915050565b600081905092915050565b6000612c4382612d5d565b9150612c4e83612d5d565b9250827fffffffffffffffffffffffffffffffffffffffffffffffffffffffffffffffff03821115612c8357612c82612e86565b5b828201905092915050565b6000612c9982612d5d565b9150612ca483612d5d565b925082612cb457612cb3612eb5565b5b828204905092915050565b6000612cca82612d5d565b9150612cd583612d5d565b925082821015612ce857612ce7612e86565b5b828203905092915050565b6000612cfe82612d3d565b9050919050565b60008115159050919050565b60007fffffffff0000000000000000000000000000000000000000000000000000000082169050919050565b600073ffffffffffffffffffffffffffffffffffffffff82169050919050565b6000819050919050565b82818337600083830152505050565b60005b83811015612d94578082015181840152602081019050612d79565b83811115612da3576000848401525b50505050565b60006002820490506001821680612dc157607f821691505b60208210811415612dd557612dd4612ee4565b5b50919050565b612de482612f42565b810181811067ffffffffffffffff82111715612e0357612e02612f13565b5b80604052505050565b6000612e1782612d5d565b91507fffffffffffffffffffffffffffffffffffffffffffffffffffffffffffffffff821415612e4a57612e49612e86565b5b600182019050919050565b6000612e6082612d5d565b9150612e6b83612d5d565b925082612e7b57612e7a612eb5565b5b828206905092915050565b7f4e487b7100000000000000000000000000000000000000000000000000000000600052601160045260246000fd5b7f4e487b7100000000000000000000000000000000000000000000000000000000600052601260045260246000fd5b7f4e487b7100000000000000000000000000000000000000000000000000000000600052602260045260246000fd5b7f4e487b7100000000000000000000000000000000000000000000000000000000600052604160045260246000fd5b6000601f19601f8301169050919050565b7f4552433732313a207472616e7366657220746f206e6f6e20455243373231526560008201527f63656976657220696d706c656d656e7465720000000000000000000000000000602082015250565b7f4f776e61626c653a206e6577206f776e657220697320746865207a65726f206160008201527f6464726573730000000000000000000000000000000000000000000000000000602082015250565b7f4552433732313a207472616e736665722066726f6d20696e636f72726563742060008201527f6f776e6572000000000000000000000000000000000000000000000000000000602082015250565b7f4552433732313a20746f6b656e20616c7265616479206d696e74656400000000600082015250565b7f4552433732313a207472616e7366657220746f20746865207a65726f2061646460008201527f7265737300000000000000000000000000000000000000000000000000000000602082015250565b7f4552433732313a20617070726f766520746f2063616c6c657200000000000000600082015250565b7f4552433732313a206f70657261746f7220717565727920666f72206e6f6e657860008201527f697374656e7420746f6b656e0000000000000000000000000000000000000000602082015250565b7f4552433732313a20617070726f76652063616c6c6572206973206e6f74206f7760008201527f6e6572206e6f7220617070726f76656420666f7220616c6c0000000000000000602082015250565b7f4552433732313a2062616c616e636520717565727920666f7220746865207a6560008201527f726f206164647265737300000000000000000000000000000000000000000000602082015250565b7f4552433732313a206f776e657220717565727920666f72206e6f6e657869737460008201527f656e7420746f6b656e0000000000000000000000000000000000000000000000602082015250565b7f45524337323155524953746f726167653a2055524920736574206f66206e6f6e60008201527f6578697374656e7420746f6b656e000000000000000000000000000000000000602082015250565b7f5b4552524f525d204e465420616c7265616479206d696e746564000000000000600082015250565b7f4552433732313a206d696e7420746f20746865207a65726f2061646472657373600082015250565b7f45524337323155524953746f726167653a2055524920717565727920666f722060008201527f6e6f6e6578697374656e7420746f6b656e000000000000000000000000000000602082015250565b7f4552433732313a20617070726f76656420717565727920666f72206e6f6e657860008201527f697374656e7420746f6b656e0000000000000000000000000000000000000000602082015250565b7f4f776e61626c653a2063616c6c6572206973206e6f7420746865206f776e6572600082015250565b7f5b4552524f525d204e65656420746f2070617920757000000000000000000000600082015250565b7f4552433732314d657461646174613a2055524920717565727920666f72206e6f60008201527f6e6578697374656e7420746f6b656e0000000000000000000000000000000000602082015250565b7f4552433732313a20617070726f76616c20746f2063757272656e74206f776e6560008201527f7200000000000000000000000000000000000000000000000000000000000000602082015250565b7f4552433732313a207472616e736665722063616c6c6572206973206e6f74206f60008201527f776e6572206e6f7220617070726f766564000000000000000000000000000000602082015250565b6134a481612cf3565b81146134af57600080fd5b50565b6134bb81612d05565b81146134c657600080fd5b50565b6134d281612d11565b81146134dd57600080fd5b50565b6134e981612d5d565b81146134f457600080fd5b5056fea26469706673582212203bc7493cf5871080f7d89a07e1a8be56e9830e8a953d0c8f7013024975008ea264736f6c63430008040033",
  "linkReferences": {},
  "deployedLinkReferences": {}
}